:10065F0012010001DC00001071049106000100007E
:10066F00000109022E0001010060C8090400000406
:10067F00DCA0B0000705810304000A07050103048D
:10068F00000A0705820240000A0705020240000A1D
:030A55000209DEB5
:10046A00E508541FF52D7015AF34EF131313541FFD
:10047A0030E005752B03803E752B018039E52DB4DC
:10048A000105E4F52B8030E52D64027036E50D5444
:10049A0003F52AE50D30E707E52A25E0048004E59F
:1004AA002A25E0FF1208E28F2EE52E30E105752B92
:1004BA00018003E4F52BE4F52CFB7A00792B7D020D
:0604CA00020A061209DE21
:0104D0002209
:10052600E508541FF52B7015E50B6401450A700D9F
:10053600C2AFAF34EF54F7F534D2AF8028E52B6461
:1005460002702DE50B450A7027E50D5403F52AE5E3
:100556000D30E707E52A25E0048004E52A25E0FFBB
:10056600E4FD1208447B007A007900E4FD020A06E5
:030576001209DE89
:01057900225F
:10057A00E508541FF52B7015E50B6401450A700D4B
:10058A00C2AFAF34EF4408F534D2AF8028E52B640C
:10059A0002702DE50B450A7027E50D5403F52AE58F
:1005AA000D30E707E52A25E0048004E52A25E0FF67
:1005BA007D011208447B007A007900E4FD020A06F4
:0305CA001209DE35
:0105CD00220B
:1009A700E50B547FFF7D0112075B7B007A0079001E
:0509B700E4FD020A0648
:1008BD00E50AF52AE52AB401087E067F5F7D1280E0
:1008CD000BE52AB4020B7E067F717D2E7C000202A1
:0408DD00AF1209DE6F
:0108E10022F4
:10099100AF34EFC41313135401F52A7B007A0079A5
:0609A1002A7D01020A0696
:10061F00E50B450A7015FBFAF9FD120A06C2AFAFDA
:10062F0034EF547FF534D2AF020A4BE50B6401452A
:10063F000A7019FBFAF9FD120A06120A4B120A5038
:10064F00C2AFAF34EF4480F534D2AF221209DE22AD
:0D09EC00E4F52AFB7A00792A7D01020A0653
:10097A00E50B450A700DE50D450C7007FBFAF9FD0C
:07098A00020A061209DE2239
:10075B008F2A8D2BAF34EFC4540F20E002C2AF7D34
:10076B00D07F031209BCE52B6003432A80AD2A7F9F
:10077B00021209BCAF34EFC4540F20E002D2AF22F7
:1007EB008F2AAF34EFC4540F20E002C2AF7DD87F05
:1007FB00031209BCE52A60047D018002E4FD7F023F
:0F080B001209BCAF34EFC4540F20E002D2AF2269
:10078B008F2A8D2BAF34EFC4540F20E002C2AF7D04
:10079B00F37F031209BCAD2A7F021209BCAD2B7F7C
:1007AB00021209BCAF34EFC4540F20E002D2AF22C7
:100896008F2AAF34EFC4540F20E002C2AF7DFB7F36
:1008A600031209BCAD2A7F021209BCAF34EFC4544F
:0708B6000F20E002D2AF2287
:100905007DF47F031209BC7F021209CD8F217F027E
:0E0915001209CDEF7F00FEEF2521FFE43EFE2C
:0109230022B1
:0208E200AD0760
:1008E400AF34EFC4540F20E002C2AF7F031209BC3F
:1008F4007F021209CDAE34EEC4540F20E002D2AF11
:0109040022D0
:0F000300EF2440FD7F031209BC7F021209CD22BA
:100844008D2FAE34EEC4540F20E002C2AFEF24402B
:10085400FD7F031209BCAD2F7F021209BCAF34EF38
:09086400C4540F20E002D2AF22BF
:10086D008D21AE34EEC4540F20E002C2AFEF244010
:10087D00FD7F031209BCAD217F021209BCAF34EF1D
:09088D00C4540F20E002D2AF2296
:080227008D218B228A2389241A
:10022F00AE34EEC4540F20E002C2AFAD077F03120D
:10023F0009BC7F021209CDEF20E00EAF34EFC4549A
:10024F000F20E002D2AF7F00227DF07F031209BCA6
:10025F007F021209CD8F267F021209CD8F26E52648
:10026F00D395214003852126E4F525E525C3952661
:10027F0050197F021209CDAB22AA23A9248525820A
:10028F00758300EF1204FE052580E07DF27F0312D7
:0F029F0009BCAF34EFC4540F20E002D2AFAF263A
:0102AE00222D
:080392008D2F8B308A31893276
:10039A00AE34EEC4540F20E002C2AFAD077F0312A1
:1003AA0009BC7F021209CD7DF07F031209BCE4FD6E
:1003BA007F021209BCAD2F7F021209BCE4F533E5B6
:1003CA0033C3952F5019AB30AA31A93285338275C0
:1003DA0083001204D1FD7F021209BC053380E07D3F
:1003EA00FA7F031209BCAF34EFC4540F20E002D2E3
:0303FA00AFAF2F73
:0103FD0022DD
:0803FE008D238B248A2589263A
:10040600AE34EEC4540F20E002C2AFAD077F031234
:1004160009BC7F021209CD7DF07F031209BCE4FD01
:100426007F021209BCAD237F021209BCE4F527E561
:1004360027C395235019AB24AA25A926852782759B
:1004460083001204D1FD7F021209BC052780E07DDE
:10045600FA7F031209BCAF34EFC4540F20E002D276
:03046600AFAF2312
:010469002270
:10095E008F21AD217F031209BC7DF17F031209BCEB
:0C096E00E52170077DF27F031209BC2216
:10071E00AF34EFC4540F20E002C2AF7DFD7F031251
:10072E0009BC7F021209CD752A008F2B7F02120998
:10073E00CDEFFEE4252BF52BEE352AF52AAF34EF5F
:0C074E00C4540F20E002D2AFAE2AAF2B43
:01075A00227C
:1009BC00C2B4E42FFFE434FF8F82F583EDF0D2B4A0
:0109CC002208
:1009CD00C2B4E42FFFE434FF8F82F583E0FFD2B48D
:0109DD0022F7
:060A27000476000000004F
:030013000206DF03
:1006DF00C0E0C0F0C083C082C0D075D000C000C0E1
:1006EF0001C002C003C004C005C006C007C2AF12DC
:1006FF000321D2AFD007D006D005D004D003D0024B
:0F070F00D001D000D0D0D082D083D0F0D0E03253
:10032100AF34EF4410F5341209058E1F8F20E520FC
:10033100451F6055E52030E60C120012AF34EF4442
:1003410001F5348044E51F30E003120A58E52030FE
:10035100E707AF34EF4402F534E52030E103120141
:100361000BE52030E003120016E52030E303120A0A
:1003710041E52030E203120924E52030E503120AA9
:1003810046E52030E403120941AF34EF54EFF53470
:010391002249
:0100120022CB
:10001600E4FF120003EF20E5030200C9E4F510F542
:1000260011F512F513FB7A0079087D08FF120227F5
:10003600EF640860117D01E4FF12086D7D017F0108
:1000460012086D020103E50AFDE50BF50AEDF50B55
:10005600E50CFDE50DF50CEDF50DE50EFDE50FF5F1
:100066000EEDF50FE4FF12095E7F0112095E850EA3
:1000760010850F11E4F512F513E50830E711AF34DA
:10008600EF4404F534AF34EF549F4420F53422E5B1
:100096000F450E7009AF34EF4404F534805FD3E5A5
:1000A6000F9408E50E9400AF34EF549F4010F534DA
:1000B6007D01E4FF12086D7D017F0102086D444059
:1000C600F53422AF34EFC41354036402702F74174F
:1000D6002513F9E4FAFB7D10FF120227EF2513F52D
:1000E60013E43512F512BF100BC3E5139511E51293
:1000F60095104010AF34EF4404F5348000AF34EF70
:04010600549FF534D9
:01010A0022D2
:10010B00C3E5119513F522E5109512F5217F011228
:10011B000003AF34EFC413540364017072C3E522C0
:10012B009410E521648094804028AB14E5162513C8
:10013B00F9E5153512FA7D107F011203FE741025B7
:10014B0013F513E43512F512AF34EF549F4420F539
:10015B003422E52245216021AD22AB14E51625138F
:10016B00F9E5153512FA7F011203FEE5222513F589
:10017B0013E5213512F512800FE52245217010FB96
:0F018B00FAF9FD7F011203FEAF34EF549FF534F4
:01019A002242
:010A5800227B
:050A41007F0302000329
:100924007F021200037B007A0079767D047F021235
:0C0934000227EF6007AF35EF4401F535F6
:010940002294
:050A46007F0502000322
:100941007F041200037B007A0079367D407F041218
:0C0951000227EF6007AF35EF4402F535D8
:01095D002277
:1007BB00FF046AFF0526FF0A55FF057AFF0A55FF5E
:1007CB0009A7FF08BDFF0A55FF0991FF061FFF0987
:1007DB00ECFF097AFF0A55FF0A55FF0A55FF0A5528
:090A1E00D2AFC28AD2AAD2BA22D8
:0D09F9007580FF7590FF75A0FF75B0FF229F
:10069F00AF34EF54FEF534AF34EF54FDF534AF34CF
:1006AF00EF54FBF534AF34EF54F7F534AF34EF5468
:1006BF00EFF534AF34EF549FF534AF34EF547FF58B
:1006CF0034AF35EF54FEF535AF35EF54FDF5352228
:1005CE001209F9120A1E12069F12071EAD07AC067B
:1005DE008C288D29120A3BAF34EF30E00BC2AFAF3F
:1005EE0034EF54FEF534D2AFAF34EF1313543F3023
:1005FE00E00EC2AFAF34EF54FBF534D2AF12081A8F
:10060E00AF34EFC4131313540130E0CB120A35800C
:01061E00C615
:0E09DE007D01E4FF1208447D017F0102084400
:050A4B00E4FF0207EBCF
:050A50007F010207EB2D
:0C0A0600EDD3941050057F0112039222E2
:1002AF008E2B8F2CE4F512F513D3E5119DE5109CE1
:1002BF0040048C108D117514FF852B15852C16C3DA
:1002CF00E5119410E51094004023AB14AA15A9165C
:1002DF007D107F0112039274102513F513E435126C
:1002EF00F512C2AFAF34EF549F44208020AD11AA56
:1002FF002BA92C7BFF7F01120392E5112513F51318
:10030F00E5103512F512C2AFAF34EF549FF534D26A
:02031F00AF220B
:060A35007876E6F5902240
:10081A00E5085460FFE509540FFEEF7019EE75F014
:10082A0003A424BBF582E43407F583740193FA74B4
:09083A000293F90205201209DE07
:010843002292
:060A3B00120A2E020A124D
:070A2E007D437F0202078BEC
:0C0A12007FC01208967D437F1202078B04
:0300000002019B5F
:0C019B00787FE4F6D8FD7581790201E25E
:1004D100BB010CE58229F582E5833AF583E02250E0
:1004E10006E92582F8E622BBFE06E92582F8E2222A
:0D04F100E58229F582E5833AF583E4932244
:1004FE00F8BB010DE58229F582E5833AF583E8F034
:10050E00225006E92582C8F622BBFE05E92582C8DF
:02051E00F222C7
:060520008A838982E47366
:1001A7000205CEE493A3F8E493A34003F68001F29B
:1001B70008DFF48029E493A3F85407240CC8C33359
:1001C700C4540F4420C8834004F456800146F6DF28
:1001D700E4800B0102040810204080900A27E47E87
:1001E700019360BCA3FF543F30E509541FFEE4931D
:1001F700A360010ECF54C025E060A840B8E493A3E4
:10020700FAE493A3F8E493A3C8C582C8CAC583CA0E
:10021700F0A3C8C582C8CAC583CADFE9DEE780BEC6
:010A2D0000C8
:00000001FF
